{
  "_format": "hh-sol-artifact-1",
  "contractName": "MedicalRecord",
  "sourceName": "contracts/MedicalRecord.sol",
  "abi": [
    {
      "anonymous": false,
      "inputs": [
        {
          "indexed": true,
          "internalType": "address",
          "name": "patient",
          "type": "address"
        },
        {
          "indexed": false,
          "internalType": "string",
          "name": "name",
          "type": "string"
        },
        {
          "indexed": false,
          "internalType": "string",
          "name": "diagnosis",
          "type": "string"
        },
        {
          "indexed": false,
          "internalType": "string",
          "name": "treatment",
          "type": "string"
        }
      ],
      "name": "RecordAdded",
      "type": "event"
    },
    {
      "inputs": [
        {
          "internalType": "string",
          "name": "_name",
          "type": "string"
        },
        {
          "internalType": "string",
          "name": "_diagnosis",
          "type": "string"
        },
        {
          "internalType": "string",
          "name": "_treatment",
          "type": "string"
        }
      ],
      "name": "addRecord",
      "outputs": [],
      "stateMutability": "nonpayable",
      "type": "function"
    },
    {
      "inputs": [],
      "name": "getRecord",
      "outputs": [
        {
          "internalType": "string",
          "name": "",
          "type": "string"
        },
        {
          "internalType": "string",
          "name": "",
          "type": "string"
        },
        {
          "internalType": "string",
          "name": "",
          "type": "string"
        },
        {
          "internalType": "address",
          "name": "",
          "type": "address"
        }
      ],
      "stateMutability": "view",
      "type": "function"
    }
  ],
  "bytecode": "0x6080604052348015600f57600080fd5b50610ad78061001f6000396000f3fe608060405234801561001057600080fd5b50600436106100365760003560e01c80633f723c621461003b578063f18ad6fb14610057575b600080fd5b610055600480360381019061005091906105ac565b610078565b005b61005f6101d0565b60405161006f9493929190610713565b60405180910390f35b60405180608001604052808481526020018381526020018281526020013373ffffffffffffffffffffffffffffffffffffffff168152506000803373ffffffffffffffffffffffffffffffffffffffff1673ffffffffffffffffffffffffffffffffffffffff16815260200190815260200160002060008201518160000190816101029190610983565b5060208201518160010190816101189190610983565b50604082015181600201908161012e9190610983565b5060608201518160030160006101000a81548173ffffffffffffffffffffffffffffffffffffffff021916908373ffffffffffffffffffffffffffffffffffffffff1602179055509050503373ffffffffffffffffffffffffffffffffffffffff167f4173845d038f43d42fe1ac8689f7d3e5cec8a2b2f643897e8a472f0ca3efebb88484846040516101c393929190610a55565b60405180910390a2505050565b60608060606000806000803373ffffffffffffffffffffffffffffffffffffffff1673ffffffffffffffffffffffffffffffffffffffff1681526020019081526020016000206040518060800160405290816000820180546102319061079c565b80601f016020809104026020016040519081016040528092919081815260200182805461025d9061079c565b80156102aa5780601f1061027f576101008083540402835291602001916102aa565b820191906000526020600020905b81548152906001019060200180831161028d57829003601f168201915b505050505081526020016001820180546102c39061079c565b80601f01602080910402602001604051908101604052809291908181526020018280546102ef9061079c565b801561033c5780601f106103115761010080835404028352916020019161033c565b820191906000526020600020905b81548152906001019060200180831161031f57829003601f168201915b505050505081526020016002820180546103559061079c565b80601f01602080910402602001604051908101604052809291908181526020018280546103819061079c565b80156103ce5780601f106103a3576101008083540402835291602001916103ce565b820191906000526020600020905b8154815290600101906020018083116103b157829003601f168201915b505050505081526020016003820160009054906101000a900473ffffffffffffffffffffffffffffffffffffffff1673ffffffffffffffffffffffffffffffffffffffff1673ffffffffffffffffffffffffffffffffffffffff16815250509050806000015181602001518260400151836060015194509450945094505090919293565b6000604051905090565b600080fd5b600080fd5b600080fd5b600080fd5b6000601f19601f8301169050919050565b7f4e487b7100000000000000000000000000000000000000000000000000000000600052604160045260246000fd5b6104b982610470565b810181811067ffffffffffffffff821117156104d8576104d7610481565b5b80604052505050565b60006104eb610452565b90506104f782826104b0565b919050565b600067ffffffffffffffff82111561051757610516610481565b5b61052082610470565b9050602081019050919050565b82818337600083830152505050565b600061054f61054a846104fc565b6104e1565b90508281526020810184848401111561056b5761056a61046b565b5b61057684828561052d565b509392505050565b600082601f83011261059357610592610466565b5b81356105a384826020860161053c565b91505092915050565b6000806000606084860312156105c5576105c461045c565b5b600084013567ffffffffffffffff8111156105e3576105e2610461565b5b6105ef8682870161057e565b935050602084013567ffffffffffffffff8111156106105761060f610461565b5b61061c8682870161057e565b925050604084013567ffffffffffffffff81111561063d5761063c610461565b5b6106498682870161057e565b9150509250925092565b600081519050919050565b600082825260208201905092915050565b60005b8381101561068d578082015181840152602081019050610672565b60008484015250505050565b60006106a482610653565b6106ae818561065e565b93506106be81856020860161066f565b6106c781610470565b840191505092915050565b600073ffffffffffffffffffffffffffffffffffffffff82169050919050565b60006106fd826106d2565b9050919050565b61070d816106f2565b82525050565b6000608082019050818103600083015261072d8187610699565b905081810360208301526107418186610699565b905081810360408301526107558185610699565b90506107646060830184610704565b95945050505050565b7f4e487b7100000000000000000000000000000000000000000000000000000000600052602260045260246000fd5b600060028204905060018216806107b457607f821691505b6020821081036107c7576107c661076d565b5b50919050565b60008190508160005260206000209050919050565b60006020601f8301049050919050565b600082821b905092915050565b60006008830261082f7fffffffffffffffffffffffffffffffffffffffffffffffffffffffffffffffff826107f2565b61083986836107f2565b95508019841693508086168417925050509392505050565b6000819050919050565b6000819050919050565b600061088061087b61087684610851565b61085b565b610851565b9050919050565b6000819050919050565b61089a83610865565b6108ae6108a682610887565b8484546107ff565b825550505050565b600090565b6108c36108b6565b6108ce818484610891565b505050565b5b818110156108f2576108e76000826108bb565b6001810190506108d4565b5050565b601f82111561093757610908816107cd565b610911846107e2565b81016020851015610920578190505b61093461092c856107e2565b8301826108d3565b50505b505050565b600082821c905092915050565b600061095a6000198460080261093c565b1980831691505092915050565b60006109738383610949565b9150826002028217905092915050565b61098c82610653565b67ffffffffffffffff8111156109a5576109a4610481565b5b6109af825461079c565b6109ba8282856108f6565b600060209050601f8311600181146109ed57600084156109db578287015190505b6109e58582610967565b865550610a4d565b601f1984166109fb866107cd565b60005b82811015610a23578489015182556001820191506020850194506020810190506109fe565b86831015610a405784890151610a3c601f891682610949565b8355505b6001600288020188555050505b505050505050565b60006060820190508181036000830152610a6f8186610699565b90508181036020830152610a838185610699565b90508181036040830152610a978184610699565b905094935050505056fea26469706673582212200619584eb6e62d63c6fdaa6eee69d4f7083da497c58cec3adc34a226e18d125564736f6c634300081c0033",
  "linkReferences": {},
  "deployedLinkReferences": {}
}